:020000021000EC
:100120004111814522E006E42A84EF00900C83B758
:10013000011A91C382972285EF10806F9307000008
:1001400091C74565130545766F0030198280972168
:1001500000009381A16C1305000019C17310750193
:10016000173500001305858517360000130686E352
:10017000098E8145EF00C06E171500001305259606
:1001800019C5171500001305255EEF001015EF00C7
:10019000E06602452C001316350021062E96EF006E
:1001A000200EBDBF411122E083C7811D06E491EFFF
:1001B0009307000081CB4965130505939700000064
:1001C000E70000008547238CF11CA2600264410116
:1001D00082809307000091CB49659385011E13052A
:1001E000059317030000670000008280411106E4B8
:1001F00022E00008B7070002B1071307300898C3D0
:10020000B7070002B1070D4798C3B707000291076F
:10021000054798C30100A260026441018280011178
:1002200006EC22E80010AA87A307F4FE0100B70736
:100230000002D1079C4393F707028127EDDBB70744
:1002400000020347F4FE012798C30100E260426404
:1002500005618280411106E422E000080100B70731
:100260000002D1079C43858B8127F5DBB70700028D
:100270009C4393F7F70F3E85A260026441018280A0
:10028000011106EC22E80010EFF05FF6930710046E
:10029000A307F4FE8347F4FE3E85EFF05FF8EFF02E
:1002A0007FFBAA872307F4FE8347E4FE3E8783474C
:1002B000F4FE1377F70F93F7F70F6317F7001305A3
:1002C0000005EFF0DFF529A013056004EFF03FF51E
:1002D00001A0014582804966C5654965130686010E
:1002E000938525431305050391AC0C65411122E06C
:1002F00006E4938701212A846384F500EF106013DC
:100300000C689387012C6385F5002285EF1060123D
:100310000C6C938701376388F50022850264A26024
:1003200041016F100011A260026441018280014509
:1003300082807971C16722F09387672D1384012130
:1003400006F426EC4AE84EE452E023B0F11A2146C6
:10035000914781451385412B1CC823300400233469
:1003600004002326040A233C04002320040223243F
:100370000402EF00E04E416AC1694169C164C1678E
:10038000130AAA5B9389695F13098964938464687B
:10039000A50721468145138541362320F40C233CD3
:1003A0004403233034052334240524E800F823389B
:1003B000040A233C040A232E04142334040C2328A7
:1003C000040C232C040CEF00A049B7070200C90756
:1003D0001387012C13854141214681452334440F65
:1003E0002338340F233C240F233094102328F41691
:1003F000233004162334041623260420233C041639
:10040000232004182324041878F0EF006045938714
:100410000137233C44192330341B2334241B233855
:10042000941AA2702338F4180274E2644269A26933
:10043000026A4561828083B7011A797126EC06F45D
:1004400022F0AA84DDC7C966938686011308000BD3
:1004500098466351E00633070703806A229729A074
:100460001304040B6308E40483170401F5FBC1774C
:1004700085071CC82326040A233004002334040003
:10048000233C040023200402232404022146814546
:100490001305440AEF00C03C233C04042320040657
:1004A000233C040623200408A27022850274E2641F
:1004B00045618280806219C0A28659BF9305802D54
:1004C000268536E4EF00F011A2662A8415C591470F
:1004D0001CC561052330040008E81306002C814583
:1004E00036E4EF00E037A2661308000B80E2A28634
:1004F00085B7EFF01FE481BF23B00600B1479CC071
:1005000065B73C6591C38280C16703B7011A9387C1
:10051000A72E3CE56DFB31BD828082804966C165B6
:10052000130686019385252D014509A84966C165F5
:10053000130686019385E532014509A05D714AF8ED
:100540004EF452F056EC5AE85EE462E086E4A2E033
:1005500026FCB289AA8A2E8B0149930B000B054C0D
:100560007D5A83A4890063599002B384740303B451
:100570000901A29483570401637CFC0083172401C2
:10058000A285568563864701029B336925010129AF
:100590001304040BE31094FE83B90900E39309FCF0
:1005A000A6600664E274A279027AE26A426BA26BE8
:1005B000026C4A85427961618280411122E02E8479
:1005C0008395250106E4EF00E01B634905005C68A4
:1005D000A260AA975CE8026441018280835704010B
:1005E0007D777D17F98FA2602318F4000264410122
:1005F000828001458280839705017971368306F4F4
:1006000093F607102E87B2882A8891EEFD76FD16A4
:10061000A270F58F831527012318F7009A86468666
:100620004285456171AA8395250132E889460146D4
:100630001AEC3AE02AE4EF00201102676263C26814
:10064000831707012268D9B7411122E02E848395D0
:10065000250106E4EF00400F7D5783170401630B6B
:10066000E5000567D98FA26048E82318F40002640A
:10067000410182807D772A97F98FA2602318F400C8
:100680000264410182808395250109A0011122E8BD
:1006900026E4AA842E8506EC23A4011AEF10A016E6
:1006A000FD576307F500E2604264A2640561828041
:1006B00083A7811AEDDBE26042649CC0A2640561FD
:1006C000828083B781186380A7082C75797126EC26
:1006D00006F422F0AA848DC94AE84EE40149930940
:1006E0000020B3872501806301C8A28500602685AC
:1006F000EF00C04B7DF8AC742109E31439FF268567
:10070000EF00C04A4269A269AC6881C52685EF0046
:10071000E049A07019C4A28500602685EF00004959
:100720007DF8AC7C81C52685EF004048BC6499C744
:100730000274A2702685E26445618287A270027409
:10074000E2644561828082800111AE8722E826E45E
:10075000B285AA8436863E8506EC23A4011AEF10E2
:10076000400FFD576307F500E2604264A264056133
:10077000828083A7811AEDDBE26042649CC0A264A0
:10078000056182800111AE8722E826E4B285AA8441
:1007900036863E8506EC23A4011AEF10200EFD5785
:1007A0006307F500E2604264A2640561828083A76A
:1007B000811AEDDBE26042649CC0A2640561828024
:1007C0000111AE8722E826E4B285AA8436863E85EA
:1007D00006EC23A4011AEF104012FD576307F50041
:1007E000E2604264A2640561828083A7811AEDDB26
:1007F000E26042649CC0A26405618280011122E82B
:100800004AE04964496906EC26E413090900130427
:100810000400630D8900330989401359394081442C
:100820001C60850421048297E3EC24FF4969496434
:100830001309090113040400630D89003309894079
:100840001359394081441C60850421048297E3ECEC
:1008500024FFE2604264A2640269056182800000B4
:10086000FD47AA8663F0C71013F7760019CF9702E9
:100870000000131327009A920683E78022169A80BD
:1008800061173A96998E63FFC70C99E105A00100A4
:1008900093F5F50F93928500B3E55500939205010A
:1008A000B3E5550093920502B3E55500937286FFB8
:1008B0003383560093F2820F63800202B3025040EA
:1008C00093820210B38656409703000093D2120021
:1008D000969367800301010023B0B60023B4B600ED
:1008E00023B8B60023BCB60023B0B60223B4B602C8
:1008F00023B8B60223BCB60223B0B60423B4B604B0
:1009000023B8B60423BCB60423B0B60623B4B60697
:1009100023B8B60623BCB60623B0B60823B4B6087F
:1009200023B8B60823BCB60823B0B60A23B4B60A67
:1009300023B8B60A23BCB60A23B0B60C23B4B60C4F
:1009400023B8B60C23BCB60C23B0B60E23B4B60E37
:1009500023B8B60E23BCB60E93860610E3EE66F6F9
:100960001D8A59C6970200003386C7400A06B29214
:1009700067800201238FB600A38EB600238EB600D7
:10098000A38DB600238DB600A38CB600238CB600D1
:10099000A38BB600238BB600A38AB600238AB600C9
:1009A000A389B6002389B600A388B6002388B600C1
:1009B000A387B6002387B600A386B6002386B600B9
:1009C000A385B6002385B600A384B6002384B600B1
:1009D000A383B6002383B600A382B6002382B600A9
:1009E000A381B6002381B600A380B6002380B600A1
:1009F00082805D7152F04AF803B9011B86E4630EF0
:100A000009064EF456EC5AE85EE4A2E026FC62E0E9
:100A10002A8BAE8BFD59854A032489007D346347B8
:100A200004049304090193173400BE94639C0B04DF
:100A3000832789009460FD376388870823B004000A
:100A400095C2832709313B978A00032C8900F98FCF
:100A5000B9EB82960327890083B7011B63138707CD
:100A6000639127077D34E114E31234FD0664E274D8
:100A7000A279E26A426BA26B026CA6604279027AAA
:100A80006161828083B704201B07F4FFE382FBFAD5
:100A90007934E30D37FD83B7841F638A7703C1146C
:100AA000E31234FFE1B78327493183B504107D8F0A
:100AB00015E35A8582960327890083B7011BE3015A
:100AC00087FBCDD73E8989BF2324890095BFE114D8
:100AD0003A84B9BF2E858296B5BFAA858146014664
:100AE00001456F00704B79714AE8496922F026ECA4
:100AF0004EE42E8406F4AA8913098918EF003013F6
:100B00008337090105678467F1989387047E93878B
:100B1000F77F3384874031807D143204634BE400D7
:100B200081454E85EF00B04083370901A697630DDC
:100B3000F5004E85EF00D00FA2700274E2644269A6
:100B4000A269014545618280B30580404E85EF0072
:100B5000103EFD576308F5028336090183B7014251
:100B6000818C93E414004E85818F84E623B0F1429A
:100B7000EF00100CA2700274E2644269A26905459C
:100B80004561828081454E85EF00703A0337090147
:100B9000FD46B307E540E3DEF6F803B6011993E737
:100BA0001700118D1CE723B0A14261B7E5C1011107
:100BB00022E82EE42A8406ECEF007007A26549685B
:100BC0001308881803B585FF138705FF83380801CC
:100BD0009377E5FF3306F700146613731500F19A57
:100BE0006382C81214E6B308D60083B8880093F86D
:100BF00018006319030603B305FFC96593858519BA
:100C000033076740086B9A976301B50E033387017A
:100C1000233C65002338A3006380081293E6170085
:100C200014E71CE29306F01F63ECF6068D8393969F
:100C3000170089268E0603358800C2968C621BD663
:100C400027408547B397C700C98F138606FF0CEB73
:100C500010EF2334F80098E298ED22854264E260B8
:100C60000561F9A763950802C965B697938585194B
:100C7000146A93E817003305F700638FB60E106E01
:100C800090EE14EA233417011CE169BF82801365DA
:100C9000150023BCA5FE1CE29306F01FE3F8F6F84E
:100CA00093D697001146636BD60893D66700939549
:100CB00016009B8525078E051B868603C2959461C9
:100CC000C1156396D500D9A0946A6386D500906655
:100CD000719AE3EBC7FE8C6E0CEF14EB2285426435
:100CE000E26098E998EE0561A1A7639A08060C6E88
:100CF000106ABE9693E716000CEE90E91CE7369753
:100D000014E3A1BFBE96631A030083B705FF1D8FCE
:100D1000106BBE961C6F1CEE90EB13E6160083B7AB
:100D2000811910E72338E800E3E9F6F283B5811C66
:100D30002285EFF05FDB15B7B6971DBF514663758F
:100D4000D60213064005636ED60493D6C70093956A
:100D500016009B85E50D8E051B86E60685B793E696
:100D6000170014E71CE2D5BD939516009B85850BF3
:100D70008E051B86B60599B72334E8022330E802B6
:100D80000CEF0CEB233417011CE1C1BD03358800C7
:100D90001B5626408547B397C700C98F2334F800F8
:100DA00025BF13064015636CD60093D6F7009395C4
:100DB00016009B85050F8E051B86760701B7130568
:100DC00040559305007F1306E007E369D5EE93D6FF
:100DD0002701939516009B85A50F8E051B86C607D8
:100DE000F1BD1D71A2E886EC938775011307E0023F
:100DF0002A84636CF7049306000263EAB618EF00D6
:100E00000063930600021307000591484968130820
:100E1000881842971C67130607FF6380C7349867DA
:100E2000906F8C6B719B3E97146790ED3EE40CEADB
:100E300093E61600228514E7EF00805FA267E66064
:100E40004664138507012561828093F607FFB3B5D9
:100E5000B600FD83CD8F639C071236E4EF00205D62
:100E6000A2669307701F63FDD75A93D896009147E7
:100E700063F61713D14763E917331B8EC8051B159B
:100E80001E009B88B8050E0549681308881842950E
:100E90001C654115630EF5287D4339A08C6F635B9B
:100EA00006286307B528AE879867719B3306D7403D
:100EB000E356C3FE83370802496E130E8E1963860C
:100EC000C72788677D4671993307D5406343E63667
:100ED0002334C8032330C803635F07321307F01FAE
:100EE000033388006360A7280D81131715000927B5
:100EF0000E0742970C631B55254005463316A60086
:100F00003363C300130607FF8CEB90EF23346800B4
:100F10001CE39CED9BD7284005453315F50063691C
:100F2000A308B377650089EF060593F8C8FFB37788
:100F30006500912891E70605B37765009128E5DF04
:100F4000FD4E139F1800092F791F0E0F429F7A83C1
:100F500003378301C68F630BE3261067BA87186FC8
:100F6000719AB305D64063CBBE26E3C605FE3E9616
:100F700014668C6B228593E6160014E698ED0CEB54
:100F80003EE4EF00E04AA2671385070121A0B147C4
:100F90001CC00145E66046642561828093D86600E6
:100FA0001B8E98031B151E009B8888030E05E9BD48
:100FB000833708019067719A3307D64013250702DB
:100FC000B335D600C98D638E051283B8811C83B5F5
:100FD00001197D57B698638CE53005677D07BA988F
:100FE0007D77B3F8E800C685228542E836E43EF412
:100FF00032F046ECEF00A0737D57A26642682A8368
:101000006304E50E0276A277E268B385C7006366E3
:10101000B526938E014203B70E00469723B0EE002B
:101020006383A53603BF01197D55630AAF36B30547
:10103000B3402E9723B0EE00137EF30063060E2C10
:10104000137303FF0567410341079A983307C741AC
:10105000330717415217935547032285F6E042FCA8
:1010600036F83EF432F01AEC72E846E4AEE4EF00F3
:10107000006C7D57A268426E62630276A277C276E8
:101080006278866E6305E534A66533056540B3086E
:10109000B50003B70E002338680093E818002E97B8
:1010A0002334130123B0EE00638407037D45637985
:1010B000C5228C672116419A8589D18D8CE7A54878
:1010C000B385C70023B4150123B815016367C53084
:1010D00003B6011C6374E60023B0E11C03B6811B58
:1010E0006374E60023BCE11A833708019067719AA4
:1010F0003307D640932507023336D6004D8E63144E
:10110000061E13E6160090E7BE963EE4136717002E
:101110002338D800228598E6EF008031A267E66088
:101120004664138507012561828003338800DDB39F
:10113000F28849B3906B3E9714670CEE3EE493E659
:10114000160090E9228514E7EF00802EA267E66082
:10115000466413850701256182801C6F8928E30B93
:10116000F7D475B9135795001146637EE60E5146C4
:10117000636FE61C931517009B85850B8E051B0678
:10118000B705C2959861C1156396E500A5A2186BD5
:101190006386E5001067719AE36BC5FE0C6F8CEFF8
:1011A00098EB9CE91CEFBDB39307400563F1170F63
:1011B0009307401563EB171B93D8F6001B8E880727
:1011C0001B151E009B8878070E057DB9852F93F7A8
:1011D0003F004103E1CF03378301B5BB886B93E840
:1011E000160023B4170118ED08EBBE962334D8027D
:1011F0002330D80213E715003E9623BCC60123B85E
:10120000C60198E622850CE23EE4EF006022A26768
:101210001385070141B3B386A70098663EE4228593
:101220001367170098E6EF00A020A2671385070157
:1012300095B313E6160090E7BE962334D802233008
:10124000D802936517003386A70023BCC60123B8D4
:10125000C6018CE6228518E23EE4EF00601DA2671D
:101260001385070105BB13576500931517009B8570
:1012700025078E051B06870329B7E39707E7938E9B
:10128000014203B70E00469723B0EE0061BB93D82E
:10129000C6001B8EF8061B151E009B88E8060E056F
:1012A000E5B683370F01FD386399E71793F73800E8
:1012B000411FE5FB033788009347F5FFF98F23347F
:1012C000F8000605E3E6A7CEE30405CE3377F50084
:1012D00011E706053377F500912F65DFFE8895B19C
:1012E00085472334F3002285EF0080145DB1938895
:1012F0000802D5B91B56264005453316C500336391
:10130000C3002334680061BD330713013307E04095
:10131000521793554703228576FC42F836F43EF087
:1013200032EC46E81AE4AEE0EF0060407D572263FD
:10133000C26862668277A2764278E27E8145E30ADD
:10134000E5D4866533056540B308B50099B3130647
:1013500040056369E6041357C500931517009B8584
:10136000E50D8E051B06E70629BD9307405563E989
:10137000170593D826011B8ED8071B151E009B88C6
:10138000C8070E0511B613954503E31D05C883353F
:101390000801B307160193E717009CE515BB23B8B6
:1013A000611859B9130640156367E6041357F50031
:1013B000931517009B85050F8E051B067707D1B384
:1013C0001305007F130EF0079308E00775BC411E5C
:1013D000F298B388684081456DB9938507012285ED
:1013E00076EC42E836E4EFF06FFCE26E4268A2660B
:1013F00003B70E00F1B9930E40559305007F130615
:10140000E007E3E0EED813572501931517009B85FD
:10141000A50F8E051B06C707ADB38337880055B5EA
:1014200093D836001397180009270E07C5B282809B
:101430008280011106EC4AE0BDCD22E826E42E842C
:10144000AA8419C13C65C1CFEFF00F8D8317040149
:10145000B9CFA2852685EF0060093C682A8991C72B
:101460000C7826858297634505068357040193F718
:101470000708A1EB2C6C91C9930744076385F5001D
:101480002685EFF0AFF2233C04042C7C91C5268521
:10149000EFF0CFF1233C040623180400EFF0EF87B0
:1014A000E2604264A2644A85026905618280EFF0CD
:1014B000CF864264A264E26001494A8502690561FF
:1014C00082800C6C2685EFF06FEE2C6CD5F575BF25
:1014D000835704017D5993F70708C9DFDDB7EFF0A3
:1014E0004F829DB7AA8503B58118A1B7039705015F
:1014F000797122F04EE406F4937787002E84AA894E
:10150000F9E78567938707809445D98F2398F5007D
:10151000635CD010033884046305080A26EC931634
:10152000370383A4090023A0090063C606100C78C2
:10153000014685464E850298FD572A866304F512BA
:101540008317040103388404918B99C718443C6CB9
:10155000198E99C33C581D8E0C7881464E85029891
:10156000FD5703170401631AF50C83A60900F5471C
:1015700063E2D712B70740208507B3D7D700858B22
:10158000638A0710146CFD779387F77FF98F231810
:10159000F4002324040014E09317370363D50700F5
:1015A00083A70900CDCB2C6C23A09900D5C9930744
:1015B00044076385F5004E85EFF04FDFE264233C7E
:1015C0000404A2700274A2690145456182804AE860
:1015D00003B98501630F090426EC84610D8B23B0E8
:1015E0002501BB842441814711E39C515CC46346BF
:1015F00090003DA82A99635D90023C600C78A68615
:101600004A864E858297899CE346A0FE8357040153
:10161000426993E707042318F400A2700274E2649D
:10162000A2697D5545618280B459E345D0EE51BF32
:10163000E264426979B7506801BF146CFD77938703
:10164000F77FF98F2318F4002324040014E0931784
:101650003703E3DA07F42C6C48E823A09900A1F9DA
:10166000E26485B783A70900E38C07EC138737FE94
:10167000A9171337170093B71700D98F89C723A06D
:101680009900E2643DBF8357040193E707042318E0
:10169000F40061B7136707042318E400BDBFAA87ED
:1016A00019C1386501CB0397050119E30145828013
:1016B0003E852DBD01112EE406EC2AE0EFE07FE42B
:1016C000A26582670397050109C7E2603E8505614F
:1016D00031BDE2600145056182801DC9AA8503B55F
:1016E000811819C13C6599C78397050199E30145A4
:1016F0008280EDBB01112EE42AE006ECEFE07FE0F2
:10170000A26502658397050199CFE2600561F9BB87
:101710004966C5654965130686019385E569130524
:1017200005036FE0BFE1E2600145056182800111C0
:1017300022E826E4AA842E8506EC23A4011AEF00F1
:101740008016FD576307F500E2604264A2640561FC
:10175000828083A7811AEDDBE26042649CC0A264B0
:1017600005618280011122E8C96749649387870176
:1017700013040401818F26E406EC93D4374081C81A
:1017800061143E941C60FD1461148297E5FCE260D4
:101790004264A2640561828083B7011BB9C3984784
:1017A0007D48634EE80205C5131837003E9823387C
:1017B000C81083A8073105463B16E600B3E8C80009
:1017C00023A817312338D82089466301D502931600
:1017D00037000527BE9698C78CEA014582807D5563
:1017E00082809387014723B8F11A55BF83A64731FA
:1017F0000145558E93163700052723AAC730BE969C
:1018000098C78CEA828093089003730000006344B9
:10181000050001258280011106EC2AE4EF0080100A
:10182000A267E260BB07F0401CC17D550561828064
:101830009308D005730000006343050001A0011167
:1018400006EC2AE4EF00000EA267BB07F0401CC1C3
:1018500001A09308E0037300000063430500828049
:10186000011106EC2AE4EF00E00BA267E260BB077F
:10187000F0401CC1FD573E85056182809308F0034E
:1018800073000000634305008280011106EC2AE426
:10189000EF004009A267E260BB07F0401CC1FD57A2
:1018A0003E850561828083B7011D411106E42A87C8
:1018B00081EF9308600D014573000000FD5763063A
:1018C000F502AA8723B8A11C3305F7009308600D21
:1018D0007300000083B7011D3E976318E500A26006
:1018E00023B8A11C3E8541018280EF00A003A260C5
:1018F000B1471CC17D5541018280930800047300EB
:101900000000634305008280011106EC2AE4EF0029
:101910006001A267E260BB07F0401CC1FD573E8535
:0A1920000561828003B58118828002
:0419300000000000B3
:102000003C01010000000000D201010000000000BE
:08201000A40101000000000022
:1020180000000000000000000300000000000000B5
:10202800282A010000000000000000000000000055
:10203800282A010000000000D82A01000000000042
:10204800882B0100000000000000000000000000D4
:102058000000000000000000000000000000000078
:102068000000000000000000000000000000000068
:102078000000000000000000000000000000000058
:102088000000000000000000000000000000000048
:102098000000000000000000000000000000000038
:1020A8000000000000000000000000000000000028
:1020B8000000000000000000000000000000000018
:1020C8000000000000000000000000000000000008
:1020D80000000000000000000000000000000000F8
:1020E80000000000000000000000000000000000E8
:1020F80000000000000000000100000000000000D7
:102108000E33CDAB34126DE6ECDE05000B0000009B
:1021180000000000000000000000000000000000B7
:1021280000000000000000000000000000000000A7
:102138000000000000000000000000000000000097
:102148000000000000000000000000000000000087
:102158000000000000000000000000000000000077
:102168000000000000000000000000000000000067
:102178000000000000000000000000000000000057
:102188000000000000000000000000000000000047
:1021980088210100000000008821010000000000E3
:1021A80098210100000000009821010000000000B3
:1021B800A821010000000000A82101000000000083
:1021C800B821010000000000B82101000000000053
:1021D800C821010000000000C82101000000000023
:1021E800D821010000000000D821010000000000F3
:1021F800E821010000000000E821010000000000C3
:10220800F821010000000000F82101000000000092
:102218000822010000000000082201000000000060
:102228001822010000000000182201000000000030
:102238002822010000000000282201000000000000
:1022480038220100000000003822010000000000D0
:1022580048220100000000004822010000000000A0
:102268005822010000000000582201000000000070
:102278006822010000000000682201000000000040
:102288007822010000000000782201000000000010
:1022980088220100000000008822010000000000E0
:1022A80098220100000000009822010000000000B0
:1022B800A822010000000000A82201000000000080
:1022C800B822010000000000B82201000000000050
:1022D800C822010000000000C82201000000000020
:1022E800D822010000000000D822010000000000F0
:1022F800E822010000000000E822010000000000C0
:10230800F822010000000000F8220100000000008F
:10231800082301000000000008230100000000005D
:10232800182301000000000018230100000000002D
:1023380028230100000000002823010000000000FD
:1023480038230100000000003823010000000000CD
:10235800482301000000000048230100000000009D
:10236800582301000000000058230100000000006D
:10237800682301000000000068230100000000003D
:10238800782301000000000078230100000000000D
:1023980088230100000000008823010000000000DD
:1023A80098230100000000009823010000000000AD
:1023B800A823010000000000A8230100000000007D
:1023C800B823010000000000B8230100000000004D
:1023D800C823010000000000C8230100000000001D
:1023E800D823010000000000D823010000000000ED
:1023F800E823010000000000E823010000000000BD
:10240800F823010000000000F8230100000000008C
:10241800082401000000000008240100000000005A
:10242800182401000000000018240100000000002A
:1024380028240100000000002824010000000000FA
:1024480038240100000000003824010000000000CA
:10245800482401000000000048240100000000009A
:10246800582401000000000058240100000000006A
:10247800682401000000000068240100000000003A
:10248800782401000000000078240100000000000A
:1024980088240100000000008824010000000000DA
:1024A80098240100000000009824010000000000AA
:1024B800A824010000000000A8240100000000007A
:1024C800B824010000000000B8240100000000004A
:1024D800C824010000000000C8240100000000001A
:1024E800D824010000000000D824010000000000EA
:1024F800E824010000000000E824010000000000BA
:10250800F824010000000000F82401000000000089
:102518000825010000000000082501000000000057
:102528001825010000000000182501000000000027
:1025380028250100000000002825010000000000F7
:1025480038250100000000003825010000000000C7
:102558004825010000000000482501000000000097
:102568005825010000000000582501000000000067
:102578006825010000000000682501000000000037
:102588007825010000000000782501000000000007
:1025980088250100000000008825010000000000D7
:1025A80098250100000000009825010000000000A7
:1025B800A825010000000000A82501000000000077
:1025C800B825010000000000B82501000000000047
:1025D800C825010000000000C82501000000000017
:1025E800D825010000000000D825010000000000E7
:1025F800E825010000000000E825010000000000B7
:10260800F825010000000000F82501000000000086
:102618000826010000000000082601000000000054
:102628001826010000000000182601000000000024
:1026380028260100000000002826010000000000F4
:1026480038260100000000003826010000000000C4
:102658004826010000000000482601000000000094
:102668005826010000000000582601000000000064
:102678006826010000000000682601000000000034
:102688007826010000000000782601000000000004
:1026980088260100000000008826010000000000D4
:1026A80098260100000000009826010000000000A4
:1026B800A826010000000000A82601000000000074
:1026C800B826010000000000B82601000000000044
:1026D800C826010000000000C82601000000000014
:1026E800D826010000000000D826010000000000E4
:1026F800E826010000000000E826010000000000B4
:10270800F826010000000000F82601000000000083
:102718000827010000000000082701000000000051
:102728001827010000000000182701000000000021
:1027380028270100000000002827010000000000F1
:1027480038270100000000003827010000000000C1
:102758004827010000000000482701000000000091
:102768005827010000000000582701000000000061
:102778006827010000000000682701000000000031
:102788007827010000000000782701000000000001
:1027980088270100000000008827010000000000D1
:1027A80098270100000000009827010000000000A1
:1027B800A827010000000000A82701000000000071
:1027C800B827010000000000B82701000000000041
:1027D800C827010000000000C82701000000000011
:1027E800D827010000000000D827010000000000E1
:1027F800E827010000000000E827010000000000B1
:10280800F827010000000000F82701000000000080
:10281800082801000000000008280100000000004E
:10282800182801000000000018280100000000001E
:1028380028280100000000002828010000000000EE
:1028480038280100000000003828010000000000BE
:10285800482801000000000048280100000000008E
:10286800582801000000000058280100000000005E
:10287800682801000000000068280100000000002E
:1028880078280100000000007828010000000000FE
:1028980088280100000000008828010000000000CE
:1028A800982801000000000098280100000000009E
:1028B800A828010000000000A8280100000000006E
:1028C800B828010000000000B8280100000000003E
:1028D800C828010000000000C8280100000000000E
:1028E800D828010000000000D828010000000000DE
:1028F800E828010000000000E828010000000000AE
:10290800F828010000000000F8280100000000007D
:10291800082901000000000008290100000000004B
:10292800182901000000000018290100000000001B
:1029380028290100000000002829010000000000EB
:1029480038290100000000003829010000000000BB
:10295800482901000000000048290100000000008B
:10296800582901000000000058290100000000005B
:10297800682901000000000068290100000000002B
:1029880078290100000000007829010000000000FB
:1029980000000000000000003020010000000000DE
:1029A800FFFFFFFFFFFFFFFF000002000000000025
:040000031000014E9A
:00000001FF
